:020000040000FA
:10000000880900209D010000B70100002D0D0000AF
:1000100000000000000000000000000000000000E0
:10002000000000000000000000000000BB01000014
:100030000000000000000000BD0100001B0E0000D9
:10004000C50D0000CD0D0000D50D0000DD0D000038
:10005000D50800001D150000DD150000E5150000A5
:100060005D0D0000650D0000ED0D0000F50D0000B8
:100070003D0D0000450D0000051500000D150000A8
:1000800015150000550D0000251500002D15000068
:1000900035150000B50D000021240000E50D00001D
:1000A000B3060000BD0D000011240000192400005B
:1000B0006D0D00004D0D00005D09000035080000C9
:1000C00000F002F800F03EF80CA030C80838241800
:1000D0002D18A246671EAB4654465D46AC4201D180
:1000E00000F030F87E460F3E0FCCB6460126334274
:1000F00000D0FB1AA246AB4633431847F82700004E
:1001000018280000103A02D378C878C1FAD85207EC
:1001100001D330C830C101D504680C6070470000BD
:100120000023002400250026103A01D378C1FBD813
:10013000520700D330C100D50B6070471FB51FBDFB
:1001400010B510BD00F082FA1146FFF7F7FF00F07E
:10015000A9FA00F09AFA03B4FFF7F2FF03BC02F029
:100160002BFA000070B505460C46164602E00FCC8F
:100170000FC5103E102EFAD2082E02D303CC03C5B1
:10018000083E042E07D301CC01C5361F03E02178B9
:100190002970641C6D1C761EF9D270BD0C480D4A86
:1001A000002100A1814200D902440B4802600B48A3
:1001B00080470B480047FEE7FEE7FEE7FEE7FEE765
:1001C000FEE7000007480849084A094B704700004D
:1001D000000000200000000008ED00E03D140000D9
:1001E000C100000088050020880900208807002041
:1001F000880700207047F8B5042A2CD3830712D053
:100200000B78491C0370401C521E83070BD00B78DF
:10021000491C0370401C521E830704D00B78491CF4
:100220000370401C521E8B079B0F05D0C91ADF00BC
:100230002023DE1B08C90AE0FFF794FFF8BD1D4626
:1002400008C9FD401C46B4402C4310C0121F042AAC
:10025000F5D2F308C91A521EF0D40B78491C03706A
:10026000401C521EEAD40B78491C0370401C012A22
:10027000E4D409780170F8BDD2B210B513029A180F
:1002800013049A1800F00EF810BD01E004C0091F15
:100290000429FBD28B0701D50280801CC90700D03E
:1002A0000270704700290BD0C30702D00270401CB7
:1002B000491E022904D3830702D50280801C891EAF
:1002C000E3E70022EEE70022DFE70378C278194671
:1002D000437812061B0219438378C0781B04194324
:1002E00011430902090A000608437047020A087010
:1002F0004A70020C8A70020ECA707047002203090D
:100300008B422CD3030A8B4211D300239C464EE030
:1003100003460B433CD4002243088B4231D30309EC
:100320008B421CD3030A8B4201D394463FE0C3099E
:100330008B4201D3CB01C01A524183098B4201D3B6
:100340008B01C01A524143098B4201D34B01C01AA1
:10035000524103098B4201D30B01C01A5241C30819
:100360008B4201D3CB00C01A524183088B4201D388
:100370008B00C01A524143088B4201D34B00C01A74
:100380005241411A00D201465241104670475DE089
:10039000CA0F00D04942031000D34042534000220C
:1003A0009C4603098B422DD3030A8B4212D3FC22B5
:1003B000890112BA030A8B420CD3890192118B4234
:1003C00008D3890192118B4204D389013AD092114A
:1003D00000E08909C3098B4201D3CB01C01A524105
:1003E00083098B4201D38B01C01A524143098B42CE
:1003F00001D34B01C01A524103098B4201D30B01B7
:10040000C01A5241C3088B4201D3CB00C01A5241DB
:1004100083088B4201D38B00C01A5241D9D24308C2
:100420008B4201D34B00C01A5241411A00D20146FF
:10043000634652415B10104601D34042002B00D569
:100440004942704763465B1000D3404201B500202B
:10045000C046C04602BD704770477047F0B5FF25E3
:100460002D04C609C209FF2704462E400137CB09D7
:100470003E4348402A402B400746002A6BD0002BC1
:1004800069D0AA4267D0AB4265D0002800DA324674
:100490000125ED0529432C4309022002090AD21A3D
:1004A0004B0C7F24E31A434C000A7C44E35C7D241C
:1004B0002404121914145B00A218884201D3521CA0
:1004C00000E0400049420C465C4324115C43DB01E0
:1004D0006415E318040A5C43C502200D0C4644432E
:1004E0006419250A5D432303EC0C0D4665430003A4
:1004F0000019EB184C42A34201D35B18401CD405F1
:100500002018002B07D05B00C91804D3401C002919
:1005100001D1400840003F2189048A4209D3002AC2
:1005200008DC1106090F04D0032149074018C00F49
:10053000C007F0BD01224100120689187F22520631
:100540009142F6D205214907C84201D59010F0BD6D
:10055000FF20C005F0BD002F00DA32461648AA423F
:1005600007D2AB4205D21902090E17D0F80FC00707
:10057000F0BDFF2563002D06AB42F9D84900A94222
:10058000F6D8AB4201D1A942F2D0A94201D1002153
:1005900001E061004908D0050843F0BD1102090ED1
:1005A000FBD0FF200243D005F0BD0A4601461046AD
:1005B00054E70000062400000000C07F0102C215BD
:1005C00004D00123DB071943002A0ADB9E239A1A71
:1005D00002D40846D0407047FF22410012069142E3
:1005E00001D900207047C017C04370471F22030C79
:1005F00002D10F2200041CD0030E01D10002083AE0
:10060000030F01D10001121F830F01D18000921E40
:10061000002801DB4000521ED20551180212511869
:100620001922904004D3491C002801D149084900EF
:1006300008467047C10FC90700D040420122920707
:100640001143D3E701218907D0E77047754600F0D1
:1006500025F8AE46050069465346C008C0008546E9
:1006600018B020B5FFF7AEFD60BC00274908B646BC
:100670000026C0C5C0C5C0C5C0C5C0C5C0C5C0C5B1
:10068000C0C5403D49008D46704710B50446C04680
:10069000C0462046FFF75FFD10BD000000487047D0
:1006A0002805002010B500F0C9FE01F0F1FF002080
:1006B00010BD10B5C046C04610BD000010B50020EA
:1006C0000849087008490870FF20913000F04AFF7F
:1006D00000F050FB00BF01210C2000F04BF9002876
:1006E000F9D110BD040000200500002030B50246FD
:1006F00000201402034D631901248C40E4435C6123
:1007000030BD0000000C004070B50246002015020C
:10071000034EAB191C692546CD40E807C00F70BDDC
:10072000000C004030B5024600201402044D63194D
:100730001C68240C24048DB22C431C6030BD0000C6
:10074000000C004030B5024600201402044D63192D
:100750005C68240C24048DB22C435C6030BD000026
:10076000000C004010B5014600200B02034C1A1982
:10077000D3685B085B005B1CD36010BD000C0040BD
:1007800010B5014600200B02034C1A19D36824153A
:10079000A3431B19D36010BD000C004070B5034685
:1007A0000A4600201C02224D6119CC68AD00AC4302
:1007B00015782D030326360335402C43CC60CC68D6
:1007C00001256D02AC4355786D0201267602354055
:1007D0002C43CC60CC687510AC4395782D02761014
:1007E00035402C43CC60CC687025AC43D5782D01C6
:1007F000702635402C43CC60CC680825AC43157975
:10080000ED00082635402C43CC60CC680425AC4371
:100810005579AD00042635402C43CC60CC680225C8
:10082000AC4395796D00022635402C43CC6070BDF9
:10083000000C004010B5C046C04610BDF0B50546DE
:100840000F46284600F090F80202681C00F08CF871
:100850000243022627E0A81900F086F80446082380
:100860001EE00120C003104000280DD05004020CEF
:10087000581E21460141C807C00F002801D00120A1
:100880000243134842400AE05004020C581E21461D
:100890000141C807C00F002801D0012002435B1EA0
:1008A000002BDED1761CBE42D5D310230CE00120F4
:1008B000C0031040002804D05004020C04484240F9
:1008C00001E05004020C5B1E002BF0D11046F0BD7D
:1008D0002110000010B5C046C04610BD70B50446DA
:1008E0000E4615462046002805DBC206D20E012121
:1008F0009140184A116000BF3146204601F020FEA9
:10090000012D0AD12046002805DBC206D20E0121A6
:100910009140114A116000BF1BE02046002816DB01
:10092000C206D20E012191400B4A8032116000BFF5
:1009300000BF00BFBFF34F8F00BF00BF00BF00BFAD
:1009400000BF00BFBFF36F8F00BF00BF00BF00BF7D
:1009500000BF70BD80E200E000E100E010B5C046DD
:10096000C046C046C04610BD0146087870470146E3
:1009700008787047F0B58BB005460E460024FF207E
:100980000A9000200990202101A8FFF79CFC284F25
:10099000012D0ED0022D0CD0042D0AD0062D08D02A
:1009A000082D06D00C2D04D00420099009980BB016
:1009B000F0BD1F48006A01214902884371020122EB
:1009C0005202114008431A490862002407E0A000BF
:1009D000184908586843A10001AA5050641C082C0B
:1009E000F5D30C2D01D1FF20029000241CE0FF2044
:1009F0000A9011E00A98411E0A9100280AD00E4878
:100A00000B49C8620D48C862A00001A90858A1009E
:100A1000785001E00720CAE7A0003858A10001AAD9
:100A200051588842E6D1641C082CE0D30998BEE7EF
:100A3000000002408C2800005A5A0000A5A50000C2
:100A400003480449C8620448C8620020086370472C
:100A50005A5A000000000240A5A5000008B5024651
:100A60000023FF2000902548824202D90423184623
:100A700008BDFF20009006E00098411E009100286C
:100A800001D10920F4E71E48006AC006C00F002803
:100A9000F2D100F03BF8FF20009012E00098411ED8
:100AA000009100280BD017481549C8621648C86243
:100AB0000846006A80088000801C086201E0092066
:100AC000D6E70F48006A8007800F0228E6D1002091
:100AD0001070FF20009006E00098411E0091002851
:100AE00001D10920C4E70648006AC006C00F0028EB
:100AF000F2D1FFF7A5FF1846BAE70000FFFF00009C
:100B0000000002405A5A0000A5A50000044805490B
:100B1000C8620548C8620020C043086370470000EF
:100B20005A5A000000000240A5A5000010B5014679
:100B30000020084A084BDA62084ADA621A46126A4A
:100B40000C239A438B000C2423401A43024B1A6255
:100B500010BD00005A5A000000000240A5A5000088
:100B600018B502460B460024FF200090244882421C
:100B700002D90424204618BDFF20009006E000980A
:100B8000411E0091002801D10920F4E71D48006AA8
:100B9000C006C00F0028F2D1FFF7B8FFFF20009079
:100BA00012E00098411E009100280BD0164815490C
:100BB000C8621648C8620846006A80088000401C67
:100BC000086201E00920D6E70E48006A8007800F1E
:100BD0000128E6D11360FF20009006E00098411E36
:100BE0000091002801D10920C5E70648006AC00627
:100BF000C00F0028F2D1FFF723FF2046BBE700001B
:100C0000FFFF0000000002405A5A0000A5A50000A6
:100C100002461068C840C007C00F704738B50B20A7
:100C2000800240680090009C0B218902086880F3D4
:100C3000088800BFA04738BD70B504460D4604497A
:100C400060180122294600F0D9F8002070BD00008C
:100C5000140D024070B504460D460349601829463C
:100C6000FFF7D6FF70BD0000040D024070B50446CA
:100C70000E4615461E4960180022314600F0BEF8A7
:100C800000201C496118B20088502A7818490C3994
:100C90006018314600F0B2F86A78154910316018D2
:100CA000314600F0ABF8AA7811491431601831468A
:100CB00000F0A4F8EA780E4918316018314600F0C7
:100CC0009DF82A790A4920316018314600F096F8DB
:100CD000094880680121C90388436979C903012251
:100CE000D2031140084304498860002070BD000011
:100CF0000C0D0240000C0240000F024010B50346EC
:100D0000024818188C000251002010BD000C02404F
:100D100070B504460D46044960180122294600F0CA
:100D20006DF8002070BD0000100D024008B50020D5
:100D3000009000BF00980028FCD008BD10B5C04648
:100D4000C04610BD10B5C046C04610BD10B5C04667
:100D5000C04610BD10B5C046C04610BD10B5C04657
:100D6000C04610BD10B5C046C04610BD10B5C04647
:100D7000C04610BD1CB501211C2000F0CBFA00219B
:100D8000684601700171012181700021C1706A46BD
:100D90000D218020FFF76AFF6A4608210020FFF737
:100DA00065FF0D218020FFF7B3FF08210020FFF72A
:100DB00043FF1CBD10B5C046C04610BD10B5C046AF
:100DC000C04610BD10B5C046C04610BD10B5C046E7
:100DD000C04610BD10B5C046C04610BD10B5C046D7
:100DE000C04610BD10B5C046C04610BD10B5C046C7
:100DF000C04610BD10B5C046C04610BD10B5012A92
:100E000005D1036801248C402343036004E0036898
:100E100001248C40A343036010BD10B5C046C046FA
:100E200010BD70B5044600252078030001F07AFB60
:100E30000504050C10181C0018E0032000F0CEFA81
:100E4000032000F095FA11E0032000F06FFA0DE0A6
:100E50000321084600F0D0FA032000F099FA05E0DB
:100E6000072000F045FA01E0042500BF00BF20780C
:100E7000012100F00BF8207800F09AFA607800F079
:100E800085F9A07800F096F9284670BDF8B50546BA
:100E90000C46002701F03AFB002C01D0012000E0B5
:100EA000002004465148066A2B0001F03BFB050474
:100EB00017394D7298004D48006840084000E1071E
:100EC000C90F08434949086000BF002C05D04748B6
:100ED000C0680005C00F0028F7D082E04348006AD0
:100EE0000121090788434018404908624048C0680A
:100EF000032108433E49C8603C48006802218843FA
:100F000061000222114008433849086000BF002CEC
:100F100005D0364800694006C00F0028F7D060E0D1
:100F20003248006804218843A1000422114008438C
:100F30002E49086000BF002C05D02C484069C00431
:100F4000C00F0028F7D04CE02848006A01210907AB
:100F5000884340182549086225484038C068032165
:100F60008903084322494039C860204800680821A5
:100F70008843E1000822114008431C49086000BF73
:100F8000002C05D0194880694006C00F0028F7D012
:100F900027E01648006A01210904884340181349D4
:100FA00008621448006840084000401C114908606D
:100FB000142001F013FB0D48006810218843210123
:100FC0001022114008430949086000BF002C05D0D9
:100FD0000648C06B4003C00F0028F7D001E004278B
:100FE00000BF00BF014806623846F8BD002000403F
:100FF000C00D02400024004030B589B00024142206
:10100000564904A8FFF7AEF854481430006803901E
:1010100000200090019002905148018868460181AB
:101020004F4841886846C1804D4881886846818024
:101030004B48C1886846418049482030018868464D
:101040000180484800680006450F2B0001F06AFA4D
:1010500005042E303E4178004248C0684005400DEE
:1010600069460989884201D1089C1EE03D48C06854
:101070004005400D6946C988884201D1079C14E0AB
:101080003848C0684005400D69468988884201D1CA
:10109000069C0AE03348C0684005400D694649880F
:1010A000884201D1059C00E0049C4BE02E4C49E0B5
:1010B000684600882B4949698905890D884202D113
:1010C0006846C48901E0684684893BE00124E40362
:1010D00038E02448C06B8007800F032829D1684678
:1010E00000892049C9684905490D884201D1089CF9
:1010F00020E06846C0881B49C9684905490D8842F7
:1011000001D1079C16E0684680881649C9684905E0
:10111000490D884201D1069C0CE06846408811497F
:10112000C9684905490D884201D1059C02E0049C2B
:1011300000E00D4C0B48C06BC005000F444301E0BC
:10114000002400BF00BF074800684005410F20464B
:10115000C8400446204609B030BD00007428000095
:10116000000C10000020004000127A0010B500248E
:10117000FFF742FF044604480068C004810F204680
:10118000C8400446204610BD0020004010B504466B
:1011900001F0BCF9064800680721090288432102D2
:1011A000072212021140084301490860002010BDC7
:1011B0000020004010B5044601F0A8F90648006878
:1011C0000321C9028843E1020322D20211400843ED
:1011D00001490860002010BD002000401EB50146F6
:1011E000002200200090019002903D48038868464C
:1011F00003813B4843886846C380394883886846F2
:1012000083803748C38868464380887803282DD177
:1012100068460089334BDB685B055B0D984202D161
:10122000C878022820DC6846C0882E4BDB685B0546
:101230005B0D984202D1C878022815DC6846808888
:10124000284BDB685B055B0D984202D1C878032808
:101250000ADC68464088234BDB685B055B0D9842DF
:101260000CD1C878062809DD06201EBDC8781E4BA3
:1012700058431E4B984201D90620F6E71948C06B27
:1012800003235B0398430B785B030324640323402D
:101290001843144BD8631846C06B1C2398434B78F3
:1012A0009B001C24234018430E4BD8631846C06B88
:1012B000FF23E1339843CB785B01FF24E1342340E3
:1012C0001843084BD8631846C06B800880008B78A1
:1012D0009B079B0F1843034BD8631046C5E70000DC
:1012E000000C10000020004000127A00006CDC02AC
:1012F00010B501460020064AD26B0723DB039A4350
:10130000CB030724E40323401A43014BDA6310BDE7
:101310000020004070B504460D462A46214602488A
:10132000FFF76CFD002070BD2020004010B5014685
:101330000020064A526903239B029A438B0203242E
:10134000A40223401A43014B5A6110BD0020004003
:1013500010B501460020054A12690C239A438B0000
:101360000C2423401A43014B1A6110BD0020004099
:1013700010B501460020054A126930239A430B013B
:10138000302423401A43014B1A6110BD0020004055
:1013900010B501460020054A926930239A430B019B
:1013A000302423401A43014B9A6110BD00200040B5
:1013B00070B504460025264601F0A8F806480068E6
:1013C000E02188437101E02211400843024908608E
:1013D00000F02CF8284670BD002000400146002097
:1013E000044A1269920892008B079B0F1A43014B23
:1013F0001A6170470020004030B5024600200A4BB9
:101400009B690C24A34394000C252C402343064CD9
:10141000A36123469B699B089B008C07A40F234371
:10142000014CA36130BD00000020004010B5FFF763
:10143000E3FD0149086010BD0000002010B50D4912
:1014400049888805800D0C494969890A8902014348
:10145000094A51610749203909894805400D11465B
:10146000C968C90AC9020143D160FFF7DFFF01F073
:101470000DF810BD200C1000002000401CB5FFF737
:10148000BBFD1F49884204D1FFF770FE1C4988420A
:1014900031D001211F20FFF73DFF0220FFF746FB5F
:1014A0000120FFF755FF0320FFF798FF0320FFF708
:1014B0005FFF01210846FFF7E9FC01216846017042
:1014C00004214170002181700621C170FFF786FE62
:1014D0000720FFF70DFF01210420FFF7D7FC0421AF
:1014E0006846017100214171817101A8FFF799FCE3
:1014F0000420FFF75DFF142001F09EF81CBD0000E2
:10150000006CDC0210B500F019F810BD10B5C04633
:10151000C04610BD10B5C046C04610BD10B5C0468F
:10152000C04610BD10B5C046C04610BD10B5C0467F
:10153000C04610BD10B5C046C04610BD10B5084825
:101540000078401C0649087000210846FFF7DCF8C7
:10155000012803D100210846FFF7C8F810BD00009C
:101560000400002070B586B00446142101A801F0E3
:1015700025F801210820FFF7CDFE00216846017102
:1015800041720721C17101218172002101728171B3
:10159000417101A90020FFF701F901200004001B9F
:1015A00085B229460020FFF7BDF801200004001B8A
:1015B00086B231460020FFF7C5F800210846FFF744
:1015C00095F80020FFF7DCF8012203210E20FFF739
:1015D00085F90020FFF7C6F806B070BD10B500F021
:1015E00025F910BD10B5C046C04610BD10B5054860
:1015F0000078032802D100F09DF801E000F058FCCB
:1016000010BD00000C04002010B545480078030010
:1016100000F088FF08050624424583617C837DE055
:101620003F484078002818D03D484078401E3C494B
:1016300048700846407800280AD1FF20F53000F0B5
:101640004FFD012000F046FD07203549087004E0F9
:1016500000F00CFD334800F043FD5FE03048407877
:10166000002818D02E484078401E2D494870084662
:10167000407800280AD1FF20F53000F031FD01202C
:1016800000F028FD07202649087004E000F00EFD58
:10169000244800F025FD41E000F056F83EE02048E7
:1016A0004078002816D01E484078401E1C494870DB
:1016B0000846407800280AD1FF20F53000F010FDE0
:1016C000012000F007FD07201549087002E01648C8
:1016D00000F006FD22E0144800F0AEFF00BF00BF9E
:1016E00000BF00BF00BFBFF34F8F00BF00BF00BFF0
:1016F0000E480F49C86000BF00BF00BFBFF34F8F47
:1017000000BF00BF00BF00BF00BFFDE708210020F1
:10171000FFF792FAFFF782FA00E000BF00BF10BDAA
:101720000C040020DC050000881300000400FA050A
:1017300000ED00E010B50348C079032801D100F0A6
:1017400069FD10BD0C05002010B53548C0790300B7
:1017500000F0E8FE06040527494A55625DE031487D
:10176000407800281CD02F484078401E2D494870F2
:101770000846407800280DD1FF20F53000F0B0FC7D
:10178000012000F0A7FC002000F09EFC042124486A
:10179000C17105E0152000F035FE234800F0A0FCE3
:1017A0003BE02048407800281CD01E484078401E6E
:1017B0001C4948700846407800280DD1FF20F530BC
:1017C00000F08EFC012000F085FC002000F07CFC85
:1017D00004211348C17105E0062000F013FE1248F1
:1017E00000F07EFC19E018E0FF20F53000F078FCF6
:1017F000012000F06FFC06200A4908700DE00A483D
:1018000000F06EFC0A2000F065FC002000F05CFC9B
:1018100004200449087000E000BF00BF10BD0000B4
:101820000C0500200C040020DC05000010B502218E
:10183000480700F0F2F8002808D00221480700F01D
:10184000CDF800210120800700F0C8F80421080726
:1018500000F0E3F8002808D00421080700F0BEF8E3
:1018600000210120800700F0B9F800210120800745
:1018700000F0D3F8002813D000210120800700F0E9
:10188000ADF80120800700F01FF904460548817873
:10189000FF300530445403488078401C014988706B
:1018A00010BD0000080000200020034908704870A7
:1018B0008870C870704700000800002010B586B01E
:1018C0000446062104A800F079FE1021684600F0C5
:1018D00075FE01211C20FFF71DFD002168460174E3
:1018E000012181740021C1740121417500214174DD
:1018F000017504AA09210020FFF7B8F90122092186
:101900000020FFF7FBF901216846017404AA0A21AF
:101910000020FFF7ABF901220A210020FFF7EEF9C2
:1019200001210020FFF7F6FC4021684601700021EC
:1019300041800394012149028180FFF717FC029046
:1019400069460120800700F075F80021012080071A
:1019500000F044F800210120800700F054F8012233
:1019600000210620FEF7BAFFFFF79EFF06B010BD6C
:1019700010B5134800781249497888420CD01048B5
:101980004278001D815C0120800700F0A1F80C481E
:101990004078401C0A494870094880780849C9784D
:1019A00088420BD00649CA78FF310531885C00F0C7
:1019B000C3F80348C078401C0149C87010BD00003E
:1019C0000800002004490A78091D8854091F097875
:1019D000491C014A117070470800002070B5044688
:1019E0000D460022294620461430FFF707FA002052
:1019F00070BD70B504460D4601222946201DFFF733
:101A0000FDF9002070BD70B504460D46012229463F
:101A1000201DFFF7F3F9002070BD70B504460D4698
:101A20000026294620461030FFF7F2F806463046D9
:101A300070BD0000F0B585B005460C460127214970
:101A400003C90491039000200290002C02D10420CD
:101A500005B0F0BD00206860608861780843A18807
:101A600008432178084368602078402802D0207815
:101A7000C02824D1A088C117C90D091849128900AE
:101A800003AA515A8EB2E168B1400846FEF7DAFD6A
:101A90000190A068FEF7D6FD00900199FEF7DEFCEC
:101AA00002903F210906029800F036FE0190FEF7F1
:101AB00085FD80B2A86104212846FFF79AFF002720
:101AC0003846C5E7AC28000001460868C0B2704738
:101AD00070B504460D4600BF03212046FFF79DFF69
:101AE0000028F9D02068000A0002E9B2084320600B
:101AF00000BF01212046FFF790FF0028F9D0012107
:101B00002046FFF76BFF002070BD000070B5252553
:101B1000AD020B24A40209E02946204600F094FA05
:101B2000FF35FF350235FF34FF340234014884426B
:101B3000F2D370BDFF93000010B504460C48007846
:101B4000032803D1204600F093FB10E00948807978
:101B5000FF2809DC07488179FA384454FA30807943
:101B6000401CC1B203488171322000F0ADFA10BDB3
:101B70000C0400200C05002070B5044625208002CE
:101B80002018851F287843280AD16878522807D161
:101B9000A878432804D1E878102801D1A01F84B286
:101BA0002526B60221463046FEF748FE70BD0000ED
:101BB00070B50446002C00D170BD2B48FEF785FBA4
:101BC00005462948001DFEF780FB854249D226487C
:101BD0000830FEF77AFB244908394A7D0B7D110253
:101BE00019434518802221462846FEF704FB1E486B
:101BF0000838417D027D08021043803081B21A48C6
:101C000008380175090A4175417D027D08021043BB
:101C100001214902884224DB13480830FEF755FBB6
:101C200005461148FEF751FB0646294600F00CFA1E
:101C30000D480830FEF749FB0546FF220121490205
:101C4000FEF71AFB0848FEF740FBC51DFF35FA35C5
:101C500005492846FEF74AFB00210348083801756C
:101C6000417500BFA8E700001405002070B52448A6
:101C7000FEF72BFB04462248001DFEF726FB84429C
:101C80003DD21F480838417D027D080210430028DC
:101C900006DD012149021A4808380175090A417513
:101CA00017480838417D027D08021043012149028E
:101CB000884224DB12480830FEF707FB0446104830
:101CC000FEF703FB0546214600F0BEF90C4808303C
:101CD000FEF7FBFA0446FF2201214902FEF7CCFA87
:101CE0000748FEF7F2FAC41DFF34FA3404492046CF
:101CF000FEF7FCFA0021024808380175417570BDF5
:101D0000140500200020084989790906084306497E
:101D1000C979090408430449097A090208430249B8
:101D2000497A08437047000060FC00007F214902A7
:101D30000868704770B50025FFF7F8FF0446FFF705
:101D4000E1FF054600203B49087000213A48C17177
:101D5000002D02D0681C002803D13848FFF7AEFDE3
:101D600002E02846FFF7AAFD3548844214D1082135
:101D70000020FEF7CDFF334800F0B2F90A2000F052
:101D8000A9F9002000F0A0F900F090F900F08EF918
:101D90000220284908704BE029485530844210D170
:101DA000294800F0FDF9FF20F53000F099F90120F5
:101DB00000F090F9002000F087F906201D49087016
:101DC00036E02248844212D1FFF7A0FE1E4800F000
:101DD000E7F9002000F058F9FF20F53000F080F915
:101DE000012000F077F906201249087020E016481B
:101DF00084420FD1FF20F53000F072F9012000F08D
:101E000069F9002000F060F900F030F9012009497B
:101E100008700DE00B4800F063F90A2000F05AF951
:101E2000002000F051F900F041F90220014908704A
:101E3000002070BD0C0400200C050020D4300000F0
:101E400000AA50A0DC050000AA55AA555A5A50A075
:101E500005480078062803D003480078072801D1F8
:101E6000012070470020FCE70C04002010B50F484B
:101E7000408800280AD00D484088401E0B49488001
:101E800008464088002801D1FFF7BEFB074880883C
:101E900000280AD005488088401E044988800846EA
:101EA0008088002801D1FFF7A1FB10BD0C040020A1
:101EB00070B555480078030000F034FB080506268D
:101EC000474C9C9A9B9C96E05048807904281ADBEA
:101ED0004D4880795A2816D14B48C079042812D130
:101EE0004948007A52280ED14748407AA5280AD19D
:101EF000474800F0F5F80A2000F0ECF800F0D6F8BA
:101F000002204149087076E008210020FEF700FF1A
:101F10003E488079042817DB3B4880795A2813D142
:101F20003948C07904280FD13748007A54280BD19A
:101F30003548407AA52807D1364800F031F900F03D
:101F4000EFF803203049087055E008210020FEF723
:101F5000DFFE50E02D488079082848DB2A48807948
:101F60005A2844D12848C079042840D12648007A0C
:101F700078283CD12448407BA52838D12248447A8F
:101F80002402807A001984B21F48C57A2D02007B92
:101F9000401985B22046FFF7EFFD0646AE420DD050
:101FA000012000F071F8FF20F53000F099F80120D1
:101FB00000F090F806201449087018E0164800F068
:101FC000EFF8FFF7A3FD154800F0EAF8002000F055
:101FD0005BF8FF20F53000F083F8012000F07AF87C
:101FE00006200949087008210020FEF791FE02E052
:101FF00001E000E000BF00BF002104488171002023
:1020000000F062F870BD00000C0400200C050020F8
:10201000DC05000055AA50A05A5A50A0AA55AA554E
:1020200070B5064600250BE03046FEF717FD30463A
:10203000FEF79DFC0446601C002800D102E06D1CE8
:10204000052DF1DB00BF70BD70B505460C46284676
:10205000FFF7E6FF002606E02846216800F0ACF80E
:102060002D1D241D761C802EF6D370BD10B55A2070
:10207000FFF7A8FC0420FFF7A5FC5320FFF7A2FC04
:10208000A520FFF79FFC10BD10B504465A20FFF7AE
:1020900099FC0420FFF796FC7920FFF793FC20467B
:1020A000FFF790FCA520FFF78DFC10BD10B55A205E
:1020B000FFF788FC0420FFF785FC5420FFF782FC23
:1020C000A520FFF77FFC10BD014988807047000004
:1020D0000C040020014A5070704700000C040020DE
:1020E00001494880704700000C04002010B50146EB
:1020F000002901D1012010BD0023002204E0C81CEA
:10210000805CC01883B2521C802AF8DBDCB28320CA
:10211000405C844201D00120EDE70020EBE70000A5
:1021200010B51B48FFF7DCFF0B20FFF7D3FF0020A3
:10213000FFF7CAFF002117488171014616310020C0
:10214000FEF7D4F801211348817601460831252095
:102150008002FEF7CBF80F490C310F48FEF7C6F8A6
:1021600000210C4801754175014610310B48FEF7FE
:10217000BDF808481030FEF7A8F80446FF220121F8
:102180004902FEF779F801210248C17110BD000033
:10219000DC0500000C050020FFFB00000C02002005
:1021A00010B504467F204002FFF73AFF21467F200A
:1021B000400200F001F810BDF8B507460D460026B4
:1021C0000BE029463846FEF7CBFC3846FEF7CFFB3E
:1021D0000446AC4200D102E0761C052EF1DB00BFC4
:1021E000F8BD000010B5062000F00CF90748FFF715
:1021F00077FF0A20FFF76EFF0020FFF765FF002141
:10220000034881710221C17110BD0000DC0500008E
:102210000C05002010B5152000F0F4F80748FFF772
:102220005FFF0A20FFF756FF0020FFF74DFF002158
:10223000034881710121C17110BD0000DC0500005F
:102240000C05002010B5182000F0DCF8FF20F53058
:10225000FFF746FF0120FFF73DFF0020FFF734FFA7
:102260000021024881710421C17110BD0C050020BC
:1022700010B504463648C079002806D0012805D09C
:1022800002281FD0032860D14BE05FE0042C01D06E
:10229000182C0DD1FF20F530FFF722FF0120FFF7AA
:1022A00019FF0020FFF710FF04212948C17108E041
:1022B000012C06D12748847101212548817100F045
:1022C00091F843E0042C12D1FFF7D0FC062000F077
:1022D00099F8FF20F530FFF703FF0120FFF7FAFE22
:1022E0000020FFF7F1FE05211948C17118E0182CF4
:1022F0000DD1FF20F530FFF7F3FE0120FFF7EAFED6
:102300000020FFF7E1FE04211148C17108E0012C13
:1023100006D11048847101210D48817100F062F8E6
:1023200014E00B488179FA384454FA308079401C23
:10233000C1B2074881718079842803D23220FFF727
:10234000C3FE03E000F008F800E000BF00BF10BDCE
:102350000C0500200C04002070B5214880798428E9
:1023600002D0FFF757FF70BD1D4CFA3C6078A17892
:102370004840FF2802D0FFF74DFFF4E76178184886
:10238000807E81420BD06078401C1549897E88424E
:1023900002D1FFF727FFE6E7FFF754FFE3E7204608
:1023A000FFF7A4FE002802D0FFF734FFDBE7E01CB4
:1023B000FFF7FEFB0A481630FDF787FF054680351C
:1023C000074916312846FDF791FF0548807E401CDD
:1023D000C1B203488176FFF705FF00BFC3E70000E5
:1023E0000C05002000B50020FFF77AFE0020FFF763
:1023F00071FE3220FFF768FE03210148C17100BD64
:102400000C05002010B504462046FFF7DBFA10BD8E
:1024100010B5C046C04610BD10B5C046C04610BD80
:1024200010B5C046C04610BD1E2002490860E1201C
:1024300008607047800F004030B503460C46012508
:10244000204600F017F806484068202188435901CB
:10245000202211400843024948600025284630BD2B
:10246000800F00401E2002490860E120086070478C
:10247000800F004004494968090909010207120F49
:102480001143014A51607047800F00401B49086AA0
:10249000096A0122120791438918184A11621849E2
:1024A000C968072252031140154AD16014494031CE
:1024B000C968144A1140124A4032D1601049096873
:1024C000114A11430E4A11600D4940310968342206
:1024D00011430B4A403211600949096A0A4A114303
:1024E000074A116206494031096A34221143044AFD
:1024F000403211620149086270470000002000402C
:10250000800D0240CBFF0000FF1F0000024803497E
:1025100088600348886070475A5A000000200040D5
:10252000A5A5000030B47446641E2578641CAB4237
:1025300004D3635D5B00E31830BC18471D46F8E721
:1025400010B5002819DB1A4A03231B02D21883088E
:102550009B00D2588307DC0EFF23A3409A438B07CE
:102560001B0E8407E40EA3401A43114B03242402DC
:102570001B198408A4001A5118E00E4A03071B0F08
:10258000083B9B089B00D2588307DC0EFF23A34027
:102590009A438B071B0E8407E40EA3401A43054B96
:1025A0000407240F083CA408A4001A5110BD000021
:1025B00000E100E01CED00E000BF704710B50A46E6
:1025C0000146002900D110BD02E000230B70491C18
:1025D0001346521E002BF8D100BFF4E770B5054634
:1025E00011481249486100208861052008610FE008
:1025F00000200E4988610E490E480068FDF77EFEF6
:10260000012109060C1A00BF08488069A042FBD8C6
:1026100028466D1E0028EBD10448006940084000A0
:102620000249086170BD0000FFFFFF0000E000E00C
:10263000A08601000000002070B50546114812492F
:102640004861002088610520086110E000200E49E3
:1026500088617D21C9000D480068FDF74FFE01210A
:1026600009060C1A00BF08488069A042FBD828461A
:102670006D1E0028EAD10448006940084000024964
:10268000086170BDFFFFFF0000E000E000000020D7
:102690000024FEF7F3FEFEF711F8FFF74BFB0B21CA
:1026A0000020FFF7C9FEFFF7DDFEFFF7BDFE2DE0BE
:1026B000FFF75EF91648007816490978884223D05A
:1026C00014480078401C13490870601C84B2322CF6
:1026D00018DB0024FFF7BCFB002804D00D2180206C
:1026E000FEF7AAFA0EE00D218020FEF7B3FA0028CB
:1026F00004D00D218020FEF79FFA03E00D218020F9
:10270000FEF706FBFFF7B2FBFFF78EFED0E70000F7
:10271000040000200500002070B501250400ED072D
:102720004C4020D4441A01D2001B0919C60D4B009D
:10273000F2B2FF2A29D01B0E2CD000020C02D31AB1
:102740002C43DC402843051910D2280A02D3401C30
:102750006D0611D0761EF6058019FF2A00DA70BDCD
:10276000C00DC00570BD694000F022F8012005438E
:10277000C541521C761CE8E764089C40C9016140D1
:102780008900E7D10124A043E4E71B0E440200D0F6
:10279000034870BD002AFCD1C00FC00770BD00BF48
:1027A0000000C07F70B501250400ED074C4022D425
:1027B000441A02D26C40001B0919C60D4B00F2B23C
:1027C000FF2A4BD01B0E50D000020C02D31A2C4310
:1027D000DC40A843051B05D5AD0019D36D08761E56
:1027E000521E37D0F605280A01D2801970BD7041FB
:1027F0006D0603D070BD6940FFF794FF9C4009024D
:102800006140490001D0401E70BD0124A04370BD4D
:102810006D081DD001202B0C01D12D0410302B0E82
:1028200001D12D0208302B0F01D12D01001DAB0F5E
:1028300001D1AD00801CEB0F01D16D00401C6D007B
:10284000361A121A680AF5054019012A02DB70BD12
:10285000002070BDC036300AC00770BD1B0E440298
:1028600001D1FF2B00D1024870BD002AF0D070BD0D
:102870000000C07F00093D0000127A000024F4002F
:102880004086510100366E01008000962000000055
:10289000170000001B00000050460000E02202006C
:1028A00018000000F0000000E80300000400000031
:1028B000030000008182838485868788898B8C8DC4
:1028C0008E8F919293959697999A9C9D9FA0A2A383
:1028D000A5A7A8AAACAEB0B2B3B5B7B9BCBEC0C2CA
:1028E000C5C7C9CCCED1D4D7D9DCDFE2E6E9ECF05C
:1028F000F3F7FAFE14290000000000200800000091
:10290000040100001C2900000800002080090000CC
:0C2910002001000000093D000000000054
:04000005000000C136
:00000001FF
